{
  "contractName": "My721token",
  "abi": [
    {
      "inputs": [
        {
          "internalType": "string",
          "name": "_name",
          "type": "string"
        },
        {
          "internalType": "string",
          "name": "_symbol",
          "type": "string"
        },
        {
          "internalType": "uint256",
          "name": "_total",
          "type": "uint256"
        }
      ],
      "stateMutability": "nonpayable",
      "type": "constructor"
    },
    {
      "anonymous": false,
      "inputs": [
        {
          "indexed": true,
          "internalType": "address",
          "name": "_owner",
          "type": "address"
        },
        {
          "indexed": true,
          "internalType": "address",
          "name": "_approved",
          "type": "address"
        },
        {
          "indexed": true,
          "internalType": "uint256",
          "name": "_tokenId",
          "type": "uint256"
        }
      ],
      "name": "Approval",
      "type": "event"
    },
    {
      "anonymous": false,
      "inputs": [
        {
          "indexed": true,
          "internalType": "address",
          "name": "_from",
          "type": "address"
        },
        {
          "indexed": true,
          "internalType": "address",
          "name": "_to",
          "type": "address"
        },
        {
          "indexed": true,
          "internalType": "uint256",
          "name": "_tokenId",
          "type": "uint256"
        }
      ],
      "name": "Transfer",
      "type": "event"
    },
    {
      "inputs": [],
      "name": "name",
      "outputs": [
        {
          "internalType": "string",
          "name": "",
          "type": "string"
        }
      ],
      "stateMutability": "view",
      "type": "function",
      "constant": true
    },
    {
      "inputs": [],
      "name": "symbol",
      "outputs": [
        {
          "internalType": "string",
          "name": "",
          "type": "string"
        }
      ],
      "stateMutability": "view",
      "type": "function",
      "constant": true
    },
    {
      "inputs": [],
      "name": "total",
      "outputs": [
        {
          "internalType": "uint256",
          "name": "",
          "type": "uint256"
        }
      ],
      "stateMutability": "view",
      "type": "function",
      "constant": true
    },
    {
      "inputs": [
        {
          "internalType": "address",
          "name": "_owner",
          "type": "address"
        }
      ],
      "name": "balanceOf",
      "outputs": [
        {
          "internalType": "uint256",
          "name": "",
          "type": "uint256"
        }
      ],
      "stateMutability": "view",
      "type": "function",
      "constant": true
    },
    {
      "inputs": [
        {
          "internalType": "uint256",
          "name": "_tokenId",
          "type": "uint256"
        }
      ],
      "name": "ownerOf",
      "outputs": [
        {
          "internalType": "address",
          "name": "",
          "type": "address"
        }
      ],
      "stateMutability": "view",
      "type": "function",
      "constant": true
    },
    {
      "inputs": [
        {
          "internalType": "address",
          "name": "_from",
          "type": "address"
        },
        {
          "internalType": "address",
          "name": "_to",
          "type": "address"
        },
        {
          "internalType": "uint256",
          "name": "_tokenId",
          "type": "uint256"
        }
      ],
      "name": "TransferFrom",
      "outputs": [],
      "stateMutability": "payable",
      "type": "function",
      "payable": true
    },
    {
      "inputs": [
        {
          "internalType": "address",
          "name": "_approved",
          "type": "address"
        },
        {
          "internalType": "uint256",
          "name": "_tokenId",
          "type": "uint256"
        }
      ],
      "name": "approve",
      "outputs": [],
      "stateMutability": "payable",
      "type": "function",
      "payable": true
    }
  ],
  "bytecode": "0x608060405234801561001057600080fd5b50604051610aa7380380610aa78339818101604052606081101561003357600080fd5b810190808051604051939291908464010000000082111561005357600080fd5b8382019150602082018581111561006957600080fd5b825186600182028301116401000000008211171561008657600080fd5b8083526020830192505050908051906020019080838360005b838110156100ba57808201518184015260208101905061009f565b50505050905090810190601f1680156100e75780820380516001836020036101000a031916815260200191505b506040526020018051604051939291908464010000000082111561010a57600080fd5b8382019150602082018581111561012057600080fd5b825186600182028301116401000000008211171561013d57600080fd5b8083526020830192505050908051906020019080838360005b83811015610171578082015181840152602081019050610156565b50505050905090810190601f16801561019e5780820380516001836020036101000a031916815260200191505b506040526020018051906020019092919050505082600090805190602001906101c8929190610235565b5081600190805190602001906101df929190610235565b5080600281905550600254600360003373ffffffffffffffffffffffffffffffffffffffff1673ffffffffffffffffffffffffffffffffffffffff168152602001908152602001600020819055505050506102e0565b828054600181600116156101000203166002900490600052602060002090601f01602090048101928261026b57600085556102b2565b82601f1061028457805160ff19168380011785556102b2565b828001600101855582156102b2579182015b828111156102b1578251825591602001919060010190610296565b5b5090506102bf91906102c3565b5090565b5b808211156102dc5760008160009055506001016102c4565b5090565b6107b8806102ef6000396000f3fe6080604052600436106100705760003560e01c80636352211e1161004e5780636352211e1461017e57806370a08231146101e357806395d89b4114610248578063c0d84ce5146102d857610070565b806306fdde0314610075578063095ea7b3146101055780632ddbd13a14610153575b600080fd5b34801561008157600080fd5b5061008a610346565b6040518080602001828103825283818151815260200191508051906020019080838360005b838110156100ca5780820151818401526020810190506100af565b50505050905090810190601f1680156100f75780820380516001836020036101000a031916815260200191505b509250505060405180910390f35b6101516004803603604081101561011b57600080fd5b81019080803573ffffffffffffffffffffffffffffffffffffffff169060200190929190803590602001909291905050506103e4565b005b34801561015f57600080fd5b506101686104d2565b6040518082815260200191505060405180910390f35b34801561018a57600080fd5b506101b7600480360360208110156101a157600080fd5b81019080803590602001909291905050506104d8565b604051808273ffffffffffffffffffffffffffffffffffffffff16815260200191505060405180910390f35b3480156101ef57600080fd5b506102326004803603602081101561020657600080fd5b81019080803573ffffffffffffffffffffffffffffffffffffffff169060200190929190505050610515565b6040518082815260200191505060405180910390f35b34801561025457600080fd5b5061025d61055e565b6040518080602001828103825283818151815260200191508051906020019080838360005b8381101561029d578082015181840152602081019050610282565b50505050905090810190601f1680156102ca5780820380516001836020036101000a031916815260200191505b509250505060405180910390f35b610344600480360360608110156102ee57600080fd5b81019080803573ffffffffffffffffffffffffffffffffffffffff169060200190929190803573ffffffffffffffffffffffffffffffffffffffff169060200190929190803590602001909291905050506105fc565b005b60008054600181600116156101000203166002900480601f0160208091040260200160405190810160405280929190818152602001828054600181600116156101000203166002900480156103dc5780601f106103b1576101008083540402835291602001916103dc565b820191906000526020600020905b8154815290600101906020018083116103bf57829003601f168201915b505050505081565b80600360003373ffffffffffffffffffffffffffffffffffffffff1673ffffffffffffffffffffffffffffffffffffffff168152602001908152602001600020541461042f57600080fd5b80600360008473ffffffffffffffffffffffffffffffffffffffff1673ffffffffffffffffffffffffffffffffffffffff16815260200190815260200160002081905550808273ffffffffffffffffffffffffffffffffffffffff163373ffffffffffffffffffffffffffffffffffffffff167f8c5be1e5ebec7d5bd14f71427d1e84f3dd0314c0f7b2291e5b200ac8c7c3b92560405160405180910390a45050565b60025481565b60006004600083815260200190815260200160002060009054906101000a900473ffffffffffffffffffffffffffffffffffffffff169050919050565b6000600360008373ffffffffffffffffffffffffffffffffffffffff1673ffffffffffffffffffffffffffffffffffffffff168152602001908152602001600020549050919050565b60018054600181600116156101000203166002900480601f0160208091040260200160405190810160405280929190818152602001828054600181600116156101000203166002900480156105f45780601f106105c9576101008083540402835291602001916105f4565b820191906000526020600020905b8154815290600101906020018083116105d757829003601f168201915b505050505081565b80600360008573ffffffffffffffffffffffffffffffffffffffff1673ffffffffffffffffffffffffffffffffffffffff168152602001908152602001600020541461064757600080fd5b6000600360008573ffffffffffffffffffffffffffffffffffffffff1673ffffffffffffffffffffffffffffffffffffffff16815260200190815260200160002081905550816004600083815260200190815260200160002060006101000a81548173ffffffffffffffffffffffffffffffffffffffff021916908373ffffffffffffffffffffffffffffffffffffffff16021790555080600360008473ffffffffffffffffffffffffffffffffffffffff1673ffffffffffffffffffffffffffffffffffffffff16815260200190815260200160002081905550808273ffffffffffffffffffffffffffffffffffffffff168473ffffffffffffffffffffffffffffffffffffffff167fddf252ad1be2c89b69c2b068fc378daa952ba7f163c4a11628f55a4df523b3ef60405160405180910390a450505056fea26469706673582212208ccca026ed601d3a7dd582859c9bdaeb482fdd89cecee59c4d32254e2486461564736f6c63430007040033",
  "immutableReferences": {},
  "source": "pragma solidity ^0.7.4;\r\n\r\ncontract My721token{\r\n    string public name;\r\n    string public symbol;\r\n    uint public total;\r\n\r\n    constructor(string memory _name, string memory _symbol, uint _total){\r\n        name=_name;\r\n        symbol=_symbol;\r\n        total=_total;\r\n        tokens[msg.sender]=total;\r\n    }\r\n\r\n    mapping(address=>uint) tokens;\r\n    mapping(uint=>address) owners;\r\n\r\n    event Transfer(address indexed _from, address indexed _to, uint indexed _tokenId);\r\n    event Approval(address indexed _owner, address indexed _approved, uint indexed _tokenId);\r\n\r\n\r\n    function balanceOf(address _owner) public view returns(uint){\r\n        return tokens[_owner];\r\n    }\r\n    function ownerOf(uint _tokenId) public view returns(address){\r\n        return owners[_tokenId];\r\n    }\r\n    function TransferFrom(address _from, address _to, uint _tokenId) public payable{\r\n        require(tokens[_from]==_tokenId);\r\n        tokens[_from]=0;\r\n        owners[_tokenId]=_to;\r\n        tokens[_to]=_tokenId;\r\n        emit Transfer(_from, _to, _tokenId);\r\n    }\r\n    function approve(address _approved, uint _tokenId) public payable{\r\n        require(tokens[msg.sender]==_tokenId);\r\n        tokens[_approved]=_tokenId;\r\n        emit Approval(msg.sender, _approved, _tokenId);\r\n    }\r\n}",
  "sourcePath": "C:/Users/CHESHEER/Documents/erc721/contracts/My721token.sol",
  "compiler": {
    "name": "solc",
    "version": "0.7.4+commit.3f05b770.Emscripten.clang"
  },
  "schemaVersion": "3.3.3",
  "updatedAt": "2021-02-03T16:33:20.936Z",
  "networkType": "ethereum",
  "devdoc": {
    "kind": "dev",
    "methods": {},
    "version": 1
  },
  "userdoc": {
    "kind": "user",
    "methods": {},
    "version": 1
  }
}